{
	"data": {
		"bytecode": {
			"linkReferences": {},
			"object": "608060405234801561001057600080fd5b50610398806100206000396000f3fe608060405234801561001057600080fd5b506004361061002b5760003560e01c80636d77a1a714610030575b600080fd5b61004a6004803603810190610045919061013e565b610060565b6040516100579190610229565b60405180910390f35b606060008267ffffffffffffffff81111561007e5761007d61024b565b5b6040519080825280602002602001820160405280156100ac5781602001602082028036833780820191505090505b50905060005b838110156100f9576002816100c791906102a9565b8282815181106100da576100d96102eb565b5b60200260200101818152505080806100f19061031a565b9150506100b2565b5080915050919050565b600080fd5b6000819050919050565b61011b81610108565b811461012657600080fd5b50565b60008135905061013881610112565b92915050565b60006020828403121561015457610153610103565b5b600061016284828501610129565b91505092915050565b600081519050919050565b600082825260208201905092915050565b6000819050602082019050919050565b6101a081610108565b82525050565b60006101b28383610197565b60208301905092915050565b6000602082019050919050565b60006101d68261016b565b6101e08185610176565b93506101eb83610187565b8060005b8381101561021c57815161020388826101a6565b975061020e836101be565b9250506001810190506101ef565b5085935050505092915050565b6000602082019050818103600083015261024381846101cb565b905092915050565b7f4e487b7100000000000000000000000000000000000000000000000000000000600052604160045260246000fd5b7f4e487b7100000000000000000000000000000000000000000000000000000000600052601160045260246000fd5b60006102b482610108565b91506102bf83610108565b92508282026102cd81610108565b915082820484148315176102e4576102e361027a565b5b5092915050565b7f4e487b7100000000000000000000000000000000000000000000000000000000600052603260045260246000fd5b600061032582610108565b91507fffffffffffffffffffffffffffffffffffffffffffffffffffffffffffffffff82036103575761035661027a565b5b60018201905091905056fea2646970667358221220e8a15256274191f267ed30425cb3d382c72d5564c25810ef1360c28c0479aaa264736f6c63430008120033",
			"opcodes": "PUSH1 0x80 PUSH1 0x40 MSTORE CALLVALUE DUP1 ISZERO PUSH2 0x10 JUMPI PUSH1 0x0 DUP1 REVERT JUMPDEST POP PUSH2 0x398 DUP1 PUSH2 0x20 PUSH1 0x0 CODECOPY PUSH1 0x0 RETURN INVALID PUSH1 0x80 PUSH1 0x40 MSTORE CALLVALUE DUP1 ISZERO PUSH2 0x10 JUMPI PUSH1 0x0 DUP1 REVERT JUMPDEST POP PUSH1 0x4 CALLDATASIZE LT PUSH2 0x2B JUMPI PUSH1 0x0 CALLDATALOAD PUSH1 0xE0 SHR DUP1 PUSH4 0x6D77A1A7 EQ PUSH2 0x30 JUMPI JUMPDEST PUSH1 0x0 DUP1 REVERT JUMPDEST PUSH2 0x4A PUSH1 0x4 DUP1 CALLDATASIZE SUB DUP2 ADD SWAP1 PUSH2 0x45 SWAP2 SWAP1 PUSH2 0x13E JUMP JUMPDEST PUSH2 0x60 JUMP JUMPDEST PUSH1 0x40 MLOAD PUSH2 0x57 SWAP2 SWAP1 PUSH2 0x229 JUMP JUMPDEST PUSH1 0x40 MLOAD DUP1 SWAP2 SUB SWAP1 RETURN JUMPDEST PUSH1 0x60 PUSH1 0x0 DUP3 PUSH8 0xFFFFFFFFFFFFFFFF DUP2 GT ISZERO PUSH2 0x7E JUMPI PUSH2 0x7D PUSH2 0x24B JUMP JUMPDEST JUMPDEST PUSH1 0x40 MLOAD SWAP1 DUP1 DUP3 MSTORE DUP1 PUSH1 0x20 MUL PUSH1 0x20 ADD DUP3 ADD PUSH1 0x40 MSTORE DUP1 ISZERO PUSH2 0xAC JUMPI DUP2 PUSH1 0x20 ADD PUSH1 0x20 DUP3 MUL DUP1 CALLDATASIZE DUP4 CALLDATACOPY DUP1 DUP3 ADD SWAP2 POP POP SWAP1 POP JUMPDEST POP SWAP1 POP PUSH1 0x0 JUMPDEST DUP4 DUP2 LT ISZERO PUSH2 0xF9 JUMPI PUSH1 0x2 DUP2 PUSH2 0xC7 SWAP2 SWAP1 PUSH2 0x2A9 JUMP JUMPDEST DUP3 DUP3 DUP2 MLOAD DUP2 LT PUSH2 0xDA JUMPI PUSH2 0xD9 PUSH2 0x2EB JUMP JUMPDEST JUMPDEST PUSH1 0x20 MUL PUSH1 0x20 ADD ADD DUP2 DUP2 MSTORE POP POP DUP1 DUP1 PUSH2 0xF1 SWAP1 PUSH2 0x31A JUMP JUMPDEST SWAP2 POP POP PUSH2 0xB2 JUMP JUMPDEST POP DUP1 SWAP2 POP POP SWAP2 SWAP1 POP JUMP JUMPDEST PUSH1 0x0 DUP1 REVERT JUMPDEST PUSH1 0x0 DUP2 SWAP1 POP SWAP2 SWAP1 POP JUMP JUMPDEST PUSH2 0x11B DUP2 PUSH2 0x108 JUMP JUMPDEST DUP2 EQ PUSH2 0x126 JUMPI PUSH1 0x0 DUP1 REVERT JUMPDEST POP JUMP JUMPDEST PUSH1 0x0 DUP2 CALLDATALOAD SWAP1 POP PUSH2 0x138 DUP2 PUSH2 0x112 JUMP JUMPDEST SWAP3 SWAP2 POP POP JUMP JUMPDEST PUSH1 0x0 PUSH1 0x20 DUP3 DUP5 SUB SLT ISZERO PUSH2 0x154 JUMPI PUSH2 0x153 PUSH2 0x103 JUMP JUMPDEST JUMPDEST PUSH1 0x0 PUSH2 0x162 DUP5 DUP3 DUP6 ADD PUSH2 0x129 JUMP JUMPDEST SWAP2 POP POP SWAP3 SWAP2 POP POP JUMP JUMPDEST PUSH1 0x0 DUP2 MLOAD SWAP1 POP SWAP2 SWAP1 POP JUMP JUMPDEST PUSH1 0x0 DUP3 DUP3 MSTORE PUSH1 0x20 DUP3 ADD SWAP1 POP SWAP3 SWAP2 POP POP JUMP JUMPDEST PUSH1 0x0 DUP2 SWAP1 POP PUSH1 0x20 DUP3 ADD SWAP1 POP SWAP2 SWAP1 POP JUMP JUMPDEST PUSH2 0x1A0 DUP2 PUSH2 0x108 JUMP JUMPDEST DUP3 MSTORE POP POP JUMP JUMPDEST PUSH1 0x0 PUSH2 0x1B2 DUP4 DUP4 PUSH2 0x197 JUMP JUMPDEST PUSH1 0x20 DUP4 ADD SWAP1 POP SWAP3 SWAP2 POP POP JUMP JUMPDEST PUSH1 0x0 PUSH1 0x20 DUP3 ADD SWAP1 POP SWAP2 SWAP1 POP JUMP JUMPDEST PUSH1 0x0 PUSH2 0x1D6 DUP3 PUSH2 0x16B JUMP JUMPDEST PUSH2 0x1E0 DUP2 DUP6 PUSH2 0x176 JUMP JUMPDEST SWAP4 POP PUSH2 0x1EB DUP4 PUSH2 0x187 JUMP JUMPDEST DUP1 PUSH1 0x0 JUMPDEST DUP4 DUP2 LT ISZERO PUSH2 0x21C JUMPI DUP2 MLOAD PUSH2 0x203 DUP9 DUP3 PUSH2 0x1A6 JUMP JUMPDEST SWAP8 POP PUSH2 0x20E DUP4 PUSH2 0x1BE JUMP JUMPDEST SWAP3 POP POP PUSH1 0x1 DUP2 ADD SWAP1 POP PUSH2 0x1EF JUMP JUMPDEST POP DUP6 SWAP4 POP POP POP POP SWAP3 SWAP2 POP POP JUMP JUMPDEST PUSH1 0x0 PUSH1 0x20 DUP3 ADD SWAP1 POP DUP2 DUP2 SUB PUSH1 0x0 DUP4 ADD MSTORE PUSH2 0x243 DUP2 DUP5 PUSH2 0x1CB JUMP JUMPDEST SWAP1 POP SWAP3 SWAP2 POP POP JUMP JUMPDEST PUSH32 0x4E487B7100000000000000000000000000000000000000000000000000000000 PUSH1 0x0 MSTORE PUSH1 0x41 PUSH1 0x4 MSTORE PUSH1 0x24 PUSH1 0x0 REVERT JUMPDEST PUSH32 0x4E487B7100000000000000000000000000000000000000000000000000000000 PUSH1 0x0 MSTORE PUSH1 0x11 PUSH1 0x4 MSTORE PUSH1 0x24 PUSH1 0x0 REVERT JUMPDEST PUSH1 0x0 PUSH2 0x2B4 DUP3 PUSH2 0x108 JUMP JUMPDEST SWAP2 POP PUSH2 0x2BF DUP4 PUSH2 0x108 JUMP JUMPDEST SWAP3 POP DUP3 DUP3 MUL PUSH2 0x2CD DUP2 PUSH2 0x108 JUMP JUMPDEST SWAP2 POP DUP3 DUP3 DIV DUP5 EQ DUP4 ISZERO OR PUSH2 0x2E4 JUMPI PUSH2 0x2E3 PUSH2 0x27A JUMP JUMPDEST JUMPDEST POP SWAP3 SWAP2 POP POP JUMP JUMPDEST PUSH32 0x4E487B7100000000000000000000000000000000000000000000000000000000 PUSH1 0x0 MSTORE PUSH1 0x32 PUSH1 0x4 MSTORE PUSH1 0x24 PUSH1 0x0 REVERT JUMPDEST PUSH1 0x0 PUSH2 0x325 DUP3 PUSH2 0x108 JUMP JUMPDEST SWAP2 POP PUSH32 0xFFFFFFFFFFFFFFFFFFFFFFFFFFFFFFFFFFFFFFFFFFFFFFFFFFFFFFFFFFFFFFFF DUP3 SUB PUSH2 0x357 JUMPI PUSH2 0x356 PUSH2 0x27A JUMP JUMPDEST JUMPDEST PUSH1 0x1 DUP3 ADD SWAP1 POP SWAP2 SWAP1 POP JUMP INVALID LOG2 PUSH5 0x6970667358 0x22 SLT KECCAK256 0xE8 LOG1 MSTORE JUMP 0x27 COINBASE SWAP2 CALLCODE PUSH8 0xED30425CB3D382C7 0x2D SSTORE PUSH5 0xC25810EF13 PUSH1 0xC2 DUP13 DIV PUSH26 0xAAA264736F6C6343000812003300000000000000000000000000 "
		},
		"gasEstimates": {
			"creation": {
				"codeDepositCost": "184000",
				"executionCost": "226",
				"totalCost": "184226"
			},
			"external": {
				"getEvenNumbers(uint256)": "infinite"
			}
		},
		"methodIdentifiers": {
			"getEvenNumbers(uint256)": "6d77a1a7"
		}
	},
	"abi": [
		{
			"inputs": [
				{
					"internalType": "uint256",
					"name": "count",
					"type": "uint256"
				}
			],
			"name": "getEvenNumbers",
			"outputs": [
				{
					"internalType": "uint256[]",
					"name": "",
					"type": "uint256[]"
				}
			],
			"stateMutability": "pure",
			"type": "function"
		}
	]
}