{
	"contract/simpleStorage.sol": {
		"SimpleStorage": {
			"abi": [
				{
					"inputs": [],
					"name": "decreaseStorage",
					"outputs": [
						{
							"internalType": "uint256",
							"name": "",
							"type": "uint256"
						}
					],
					"stateMutability": "nonpayable",
					"type": "function"
				},
				{
					"inputs": [],
					"name": "increaseStorage",
					"outputs": [
						{
							"internalType": "uint256",
							"name": "",
							"type": "uint256"
						}
					],
					"stateMutability": "nonpayable",
					"type": "function"
				},
				{
					"inputs": [],
					"name": "simpleStorage",
					"outputs": [
						{
							"internalType": "uint256",
							"name": "",
							"type": "uint256"
						}
					],
					"stateMutability": "view",
					"type": "function"
				}
			],
			"devdoc": {
				"kind": "dev",
				"methods": {},
				"version": 1
			},
			"evm": {
				"assembly": "    /* \"contract/simpleStorage.sol\":63:488  contract SimpleStorage {... */\n  mstore(0x40, 0x80)\n  callvalue\n  dup1\n  iszero\n  tag_1\n  jumpi\n  0x00\n  dup1\n  revert\ntag_1:\n  pop\n  dataSize(sub_0)\n  dup1\n  dataOffset(sub_0)\n  0x00\n  codecopy\n  0x00\n  return\nstop\n\nsub_0: assembly {\n        /* \"contract/simpleStorage.sol\":63:488  contract SimpleStorage {... */\n      mstore(0x40, 0x80)\n      callvalue\n      dup1\n      iszero\n      tag_1\n      jumpi\n      0x00\n      dup1\n      revert\n    tag_1:\n      pop\n      jumpi(tag_2, lt(calldatasize, 0x04))\n      shr(0xe0, calldataload(0x00))\n      dup1\n      0x2d3fa2d4\n      eq\n      tag_3\n      jumpi\n      dup1\n      0x6be0d6bf\n      eq\n      tag_4\n      jumpi\n      dup1\n      0xced30d15\n      eq\n      tag_5\n      jumpi\n    tag_2:\n      0x00\n      dup1\n      revert\n        /* \"contract/simpleStorage.sol\":127:302  function increaseStorage() public returns (uint) {... */\n    tag_3:\n      tag_6\n      tag_7\n      jump\t// in\n    tag_6:\n      mload(0x40)\n      tag_8\n      swap2\n      swap1\n      tag_9\n      jump\t// in\n    tag_8:\n      mload(0x40)\n      dup1\n      swap2\n      sub\n      swap1\n      return\n        /* \"contract/simpleStorage.sol\":93:118  uint public simpleStorage */\n    tag_4:\n      tag_10\n      tag_11\n      jump\t// in\n    tag_10:\n      mload(0x40)\n      tag_12\n      swap2\n      swap1\n      tag_9\n      jump\t// in\n    tag_12:\n      mload(0x40)\n      dup1\n      swap2\n      sub\n      swap1\n      return\n        /* \"contract/simpleStorage.sol\":310:485  function decreaseStorage() public returns (uint) {... */\n    tag_5:\n      tag_13\n      tag_14\n      jump\t// in\n    tag_13:\n      mload(0x40)\n      tag_15\n      swap2\n      swap1\n      tag_9\n      jump\t// in\n    tag_15:\n      mload(0x40)\n      dup1\n      swap2\n      sub\n      swap1\n      return\n        /* \"contract/simpleStorage.sol\":127:302  function increaseStorage() public returns (uint) {... */\n    tag_7:\n        /* \"contract/simpleStorage.sol\":170:174  uint */\n      0x00\n        /* \"contract/simpleStorage.sol\":192:198  uint i */\n      dup1\n        /* \"contract/simpleStorage.sol\":201:202  0 */\n      0x00\n        /* \"contract/simpleStorage.sol\":192:202  uint i = 0 */\n      swap1\n      pop\n        /* \"contract/simpleStorage.sol\":187:264  for (uint i = 0; i < 10; i += 2) {... */\n    tag_17:\n        /* \"contract/simpleStorage.sol\":208:210  10 */\n      0x0a\n        /* \"contract/simpleStorage.sol\":204:205  i */\n      dup2\n        /* \"contract/simpleStorage.sol\":204:210  i < 10 */\n      lt\n        /* \"contract/simpleStorage.sol\":187:264  for (uint i = 0; i < 10; i += 2) {... */\n      iszero\n      tag_18\n      jumpi\n        /* \"contract/simpleStorage.sol\":251:252  i */\n      dup1\n        /* \"contract/simpleStorage.sol\":235:248  simpleStorage */\n      0x00\n        /* \"contract/simpleStorage.sol\":235:252  simpleStorage = i */\n      dup2\n      swap1\n      sstore\n      pop\n        /* \"contract/simpleStorage.sol\":217:218  2 */\n      0x02\n        /* \"contract/simpleStorage.sol\":212:218  i += 2 */\n      dup2\n      tag_20\n      swap2\n      swap1\n      tag_21\n      jump\t// in\n    tag_20:\n      swap1\n      pop\n        /* \"contract/simpleStorage.sol\":187:264  for (uint i = 0; i < 10; i += 2) {... */\n      jump(tag_17)\n    tag_18:\n      pop\n        /* \"contract/simpleStorage.sol\":281:294  simpleStorage */\n      sload(0x00)\n        /* \"contract/simpleStorage.sol\":274:294  return simpleStorage */\n      swap1\n      pop\n        /* \"contract/simpleStorage.sol\":127:302  function increaseStorage() public returns (uint) {... */\n      swap1\n      jump\t// out\n        /* \"contract/simpleStorage.sol\":93:118  uint public simpleStorage */\n    tag_11:\n      sload(0x00)\n      dup2\n      jump\t// out\n        /* \"contract/simpleStorage.sol\":310:485  function decreaseStorage() public returns (uint) {... */\n    tag_14:\n        /* \"contract/simpleStorage.sol\":353:357  uint */\n      0x00\n        /* \"contract/simpleStorage.sol\":375:381  uint i */\n      dup1\n        /* \"contract/simpleStorage.sol\":384:386  10 */\n      0x0a\n        /* \"contract/simpleStorage.sol\":375:386  uint i = 10 */\n      swap1\n      pop\n        /* \"contract/simpleStorage.sol\":370:447  for (uint i = 10; i > 0; i -= 2) {... */\n    tag_23:\n        /* \"contract/simpleStorage.sol\":392:393  0 */\n      0x00\n        /* \"contract/simpleStorage.sol\":388:389  i */\n      dup2\n        /* \"contract/simpleStorage.sol\":388:393  i > 0 */\n      gt\n        /* \"contract/simpleStorage.sol\":370:447  for (uint i = 10; i > 0; i -= 2) {... */\n      iszero\n      tag_24\n      jumpi\n        /* \"contract/simpleStorage.sol\":434:435  i */\n      dup1\n        /* \"contract/simpleStorage.sol\":418:431  simpleStorage */\n      0x00\n        /* \"contract/simpleStorage.sol\":418:435  simpleStorage = i */\n      dup2\n      swap1\n      sstore\n      pop\n        /* \"contract/simpleStorage.sol\":400:401  2 */\n      0x02\n        /* \"contract/simpleStorage.sol\":395:401  i -= 2 */\n      dup2\n      tag_26\n      swap2\n      swap1\n      tag_27\n      jump\t// in\n    tag_26:\n      swap1\n      pop\n        /* \"contract/simpleStorage.sol\":370:447  for (uint i = 10; i > 0; i -= 2) {... */\n      jump(tag_23)\n    tag_24:\n      pop\n        /* \"contract/simpleStorage.sol\":464:477  simpleStorage */\n      sload(0x00)\n        /* \"contract/simpleStorage.sol\":457:477  return simpleStorage */\n      swap1\n      pop\n        /* \"contract/simpleStorage.sol\":310:485  function decreaseStorage() public returns (uint) {... */\n      swap1\n      jump\t// out\n        /* \"#utility.yul\":7:84   */\n    tag_28:\n        /* \"#utility.yul\":44:51   */\n      0x00\n        /* \"#utility.yul\":73:78   */\n      dup2\n        /* \"#utility.yul\":62:78   */\n      swap1\n      pop\n        /* \"#utility.yul\":7:84   */\n      swap2\n      swap1\n      pop\n      jump\t// out\n        /* \"#utility.yul\":90:208   */\n    tag_29:\n        /* \"#utility.yul\":177:201   */\n      tag_34\n        /* \"#utility.yul\":195:200   */\n      dup2\n        /* \"#utility.yul\":177:201   */\n      tag_28\n      jump\t// in\n    tag_34:\n        /* \"#utility.yul\":172:175   */\n      dup3\n        /* \"#utility.yul\":165:202   */\n      mstore\n        /* \"#utility.yul\":90:208   */\n      pop\n      pop\n      jump\t// out\n        /* \"#utility.yul\":214:436   */\n    tag_9:\n        /* \"#utility.yul\":307:311   */\n      0x00\n        /* \"#utility.yul\":345:347   */\n      0x20\n        /* \"#utility.yul\":334:343   */\n      dup3\n        /* \"#utility.yul\":330:348   */\n      add\n        /* \"#utility.yul\":322:348   */\n      swap1\n      pop\n        /* \"#utility.yul\":358:429   */\n      tag_36\n        /* \"#utility.yul\":426:427   */\n      0x00\n        /* \"#utility.yul\":415:424   */\n      dup4\n        /* \"#utility.yul\":411:428   */\n      add\n        /* \"#utility.yul\":402:408   */\n      dup5\n        /* \"#utility.yul\":358:429   */\n      tag_29\n      jump\t// in\n    tag_36:\n        /* \"#utility.yul\":214:436   */\n      swap3\n      swap2\n      pop\n      pop\n      jump\t// out\n        /* \"#utility.yul\":442:622   */\n    tag_30:\n        /* \"#utility.yul\":490:567   */\n      0x4e487b7100000000000000000000000000000000000000000000000000000000\n        /* \"#utility.yul\":487:488   */\n      0x00\n        /* \"#utility.yul\":480:568   */\n      mstore\n        /* \"#utility.yul\":587:591   */\n      0x11\n        /* \"#utility.yul\":584:585   */\n      0x04\n        /* \"#utility.yul\":577:592   */\n      mstore\n        /* \"#utility.yul\":611:615   */\n      0x24\n        /* \"#utility.yul\":608:609   */\n      0x00\n        /* \"#utility.yul\":601:616   */\n      revert\n        /* \"#utility.yul\":628:819   */\n    tag_21:\n        /* \"#utility.yul\":668:671   */\n      0x00\n        /* \"#utility.yul\":687:707   */\n      tag_39\n        /* \"#utility.yul\":705:706   */\n      dup3\n        /* \"#utility.yul\":687:707   */\n      tag_28\n      jump\t// in\n    tag_39:\n        /* \"#utility.yul\":682:707   */\n      swap2\n      pop\n        /* \"#utility.yul\":721:741   */\n      tag_40\n        /* \"#utility.yul\":739:740   */\n      dup4\n        /* \"#utility.yul\":721:741   */\n      tag_28\n      jump\t// in\n    tag_40:\n        /* \"#utility.yul\":716:741   */\n      swap3\n      pop\n        /* \"#utility.yul\":764:765   */\n      dup3\n        /* \"#utility.yul\":761:762   */\n      dup3\n        /* \"#utility.yul\":757:766   */\n      add\n        /* \"#utility.yul\":750:766   */\n      swap1\n      pop\n        /* \"#utility.yul\":785:788   */\n      dup1\n        /* \"#utility.yul\":782:783   */\n      dup3\n        /* \"#utility.yul\":779:789   */\n      gt\n        /* \"#utility.yul\":776:812   */\n      iszero\n      tag_41\n      jumpi\n        /* \"#utility.yul\":792:810   */\n      tag_42\n      tag_30\n      jump\t// in\n    tag_42:\n        /* \"#utility.yul\":776:812   */\n    tag_41:\n        /* \"#utility.yul\":628:819   */\n      swap3\n      swap2\n      pop\n      pop\n      jump\t// out\n        /* \"#utility.yul\":825:1019   */\n    tag_27:\n        /* \"#utility.yul\":865:869   */\n      0x00\n        /* \"#utility.yul\":885:905   */\n      tag_44\n        /* \"#utility.yul\":903:904   */\n      dup3\n        /* \"#utility.yul\":885:905   */\n      tag_28\n      jump\t// in\n    tag_44:\n        /* \"#utility.yul\":880:905   */\n      swap2\n      pop\n        /* \"#utility.yul\":919:939   */\n      tag_45\n        /* \"#utility.yul\":937:938   */\n      dup4\n        /* \"#utility.yul\":919:939   */\n      tag_28\n      jump\t// in\n    tag_45:\n        /* \"#utility.yul\":914:939   */\n      swap3\n      pop\n        /* \"#utility.yul\":963:964   */\n      dup3\n        /* \"#utility.yul\":960:961   */\n      dup3\n        /* \"#utility.yul\":956:965   */\n      sub\n        /* \"#utility.yul\":948:965   */\n      swap1\n      pop\n        /* \"#utility.yul\":987:988   */\n      dup2\n        /* \"#utility.yul\":981:985   */\n      dup2\n        /* \"#utility.yul\":978:989   */\n      gt\n        /* \"#utility.yul\":975:1012   */\n      iszero\n      tag_46\n      jumpi\n        /* \"#utility.yul\":992:1010   */\n      tag_47\n      tag_30\n      jump\t// in\n    tag_47:\n        /* \"#utility.yul\":975:1012   */\n    tag_46:\n        /* \"#utility.yul\":825:1019   */\n      swap3\n      swap2\n      pop\n      pop\n      jump\t// out\n\n    auxdata: 0xa2646970667358221220a68108981c67de6ff70d4597006891874e17e1a0a0ac46e39ec54af4674003c464736f6c63430008120033\n}\n",
				"bytecode": {
					"linkReferences": {},
					"object": "608060405234801561001057600080fd5b50610211806100206000396000f3fe608060405234801561001057600080fd5b50600436106100415760003560e01c80632d3fa2d4146100465780636be0d6bf14610064578063ced30d1514610082575b600080fd5b61004e6100a0565b60405161005b9190610129565b60405180910390f35b61006c6100d5565b6040516100799190610129565b60405180910390f35b61008a6100db565b6040516100979190610129565b60405180910390f35b600080600090505b600a8110156100cc57806000819055506002816100c59190610173565b90506100a8565b50600054905090565b60005481565b600080600a90505b6000811115610107578060008190555060028161010091906101a7565b90506100e3565b50600054905090565b6000819050919050565b61012381610110565b82525050565b600060208201905061013e600083018461011a565b92915050565b7f4e487b7100000000000000000000000000000000000000000000000000000000600052601160045260246000fd5b600061017e82610110565b915061018983610110565b92508282019050808211156101a1576101a0610144565b5b92915050565b60006101b282610110565b91506101bd83610110565b92508282039050818111156101d5576101d4610144565b5b9291505056fea2646970667358221220a68108981c67de6ff70d4597006891874e17e1a0a0ac46e39ec54af4674003c464736f6c63430008120033",
					"opcodes": "PUSH1 0x80 PUSH1 0x40 MSTORE CALLVALUE DUP1 ISZERO PUSH2 0x10 JUMPI PUSH1 0x0 DUP1 REVERT JUMPDEST POP PUSH2 0x211 DUP1 PUSH2 0x20 PUSH1 0x0 CODECOPY PUSH1 0x0 RETURN INVALID PUSH1 0x80 PUSH1 0x40 MSTORE CALLVALUE DUP1 ISZERO PUSH2 0x10 JUMPI PUSH1 0x0 DUP1 REVERT JUMPDEST POP PUSH1 0x4 CALLDATASIZE LT PUSH2 0x41 JUMPI PUSH1 0x0 CALLDATALOAD PUSH1 0xE0 SHR DUP1 PUSH4 0x2D3FA2D4 EQ PUSH2 0x46 JUMPI DUP1 PUSH4 0x6BE0D6BF EQ PUSH2 0x64 JUMPI DUP1 PUSH4 0xCED30D15 EQ PUSH2 0x82 JUMPI JUMPDEST PUSH1 0x0 DUP1 REVERT JUMPDEST PUSH2 0x4E PUSH2 0xA0 JUMP JUMPDEST PUSH1 0x40 MLOAD PUSH2 0x5B SWAP2 SWAP1 PUSH2 0x129 JUMP JUMPDEST PUSH1 0x40 MLOAD DUP1 SWAP2 SUB SWAP1 RETURN JUMPDEST PUSH2 0x6C PUSH2 0xD5 JUMP JUMPDEST PUSH1 0x40 MLOAD PUSH2 0x79 SWAP2 SWAP1 PUSH2 0x129 JUMP JUMPDEST PUSH1 0x40 MLOAD DUP1 SWAP2 SUB SWAP1 RETURN JUMPDEST PUSH2 0x8A PUSH2 0xDB JUMP JUMPDEST PUSH1 0x40 MLOAD PUSH2 0x97 SWAP2 SWAP1 PUSH2 0x129 JUMP JUMPDEST PUSH1 0x40 MLOAD DUP1 SWAP2 SUB SWAP1 RETURN JUMPDEST PUSH1 0x0 DUP1 PUSH1 0x0 SWAP1 POP JUMPDEST PUSH1 0xA DUP2 LT ISZERO PUSH2 0xCC JUMPI DUP1 PUSH1 0x0 DUP2 SWAP1 SSTORE POP PUSH1 0x2 DUP2 PUSH2 0xC5 SWAP2 SWAP1 PUSH2 0x173 JUMP JUMPDEST SWAP1 POP PUSH2 0xA8 JUMP JUMPDEST POP PUSH1 0x0 SLOAD SWAP1 POP SWAP1 JUMP JUMPDEST PUSH1 0x0 SLOAD DUP2 JUMP JUMPDEST PUSH1 0x0 DUP1 PUSH1 0xA SWAP1 POP JUMPDEST PUSH1 0x0 DUP2 GT ISZERO PUSH2 0x107 JUMPI DUP1 PUSH1 0x0 DUP2 SWAP1 SSTORE POP PUSH1 0x2 DUP2 PUSH2 0x100 SWAP2 SWAP1 PUSH2 0x1A7 JUMP JUMPDEST SWAP1 POP PUSH2 0xE3 JUMP JUMPDEST POP PUSH1 0x0 SLOAD SWAP1 POP SWAP1 JUMP JUMPDEST PUSH1 0x0 DUP2 SWAP1 POP SWAP2 SWAP1 POP JUMP JUMPDEST PUSH2 0x123 DUP2 PUSH2 0x110 JUMP JUMPDEST DUP3 MSTORE POP POP JUMP JUMPDEST PUSH1 0x0 PUSH1 0x20 DUP3 ADD SWAP1 POP PUSH2 0x13E PUSH1 0x0 DUP4 ADD DUP5 PUSH2 0x11A JUMP JUMPDEST SWAP3 SWAP2 POP POP JUMP JUMPDEST PUSH32 0x4E487B7100000000000000000000000000000000000000000000000000000000 PUSH1 0x0 MSTORE PUSH1 0x11 PUSH1 0x4 MSTORE PUSH1 0x24 PUSH1 0x0 REVERT JUMPDEST PUSH1 0x0 PUSH2 0x17E DUP3 PUSH2 0x110 JUMP JUMPDEST SWAP2 POP PUSH2 0x189 DUP4 PUSH2 0x110 JUMP JUMPDEST SWAP3 POP DUP3 DUP3 ADD SWAP1 POP DUP1 DUP3 GT ISZERO PUSH2 0x1A1 JUMPI PUSH2 0x1A0 PUSH2 0x144 JUMP JUMPDEST JUMPDEST SWAP3 SWAP2 POP POP JUMP JUMPDEST PUSH1 0x0 PUSH2 0x1B2 DUP3 PUSH2 0x110 JUMP JUMPDEST SWAP2 POP PUSH2 0x1BD DUP4 PUSH2 0x110 JUMP JUMPDEST SWAP3 POP DUP3 DUP3 SUB SWAP1 POP DUP2 DUP2 GT ISZERO PUSH2 0x1D5 JUMPI PUSH2 0x1D4 PUSH2 0x144 JUMP JUMPDEST JUMPDEST SWAP3 SWAP2 POP POP JUMP INVALID LOG2 PUSH5 0x6970667358 0x22 SLT KECCAK256 0xA6 DUP2 ADDMOD SWAP9 SHR PUSH8 0xDE6FF70D45970068 SWAP2 DUP8 0x4E OR 0xE1 LOG0 LOG0 0xAC CHAINID 0xE3 SWAP15 0xC5 0x4A DELEGATECALL PUSH8 0x4003C464736F6C63 NUMBER STOP ADDMOD SLT STOP CALLER "
				},
				"gasEstimates": {
					"creation": {
						"codeDepositCost": "105800",
						"executionCost": "153",
						"totalCost": "105953"
					},
					"external": {
						"decreaseStorage()": "infinite",
						"increaseStorage()": "infinite",
						"simpleStorage()": "2429"
					}
				},
				"methodIdentifiers": {
					"decreaseStorage()": "ced30d15",
					"increaseStorage()": "2d3fa2d4",
					"simpleStorage()": "6be0d6bf"
				}
			},
			"storageLayout": {
				"storage": [
					{
						"astId": 3,
						"contract": "contract/simpleStorage.sol:SimpleStorage",
						"label": "simpleStorage",
						"offset": 0,
						"slot": "0",
						"type": "t_uint256"
					}
				],
				"types": {
					"t_uint256": {
						"encoding": "inplace",
						"label": "uint256",
						"numberOfBytes": "32"
					}
				}
			},
			"userdoc": {
				"kind": "user",
				"methods": {},
				"version": 1
			}
		}
	}
}